:020000040000FA
:1000000018050020F100000019010000D5000000D3
:1000100000000000000000000000000000000000E0
:100020000000000000000000000000001D010000B2
:1000300000000000000000001F010000210100007E
:1000400023010000230100004504000023010000FB
:100050008D040000230100002301000000000000C7
:10006000230100002301000023010000E10800003B
:1000700023010000230100002301000023010000F0
:1000800023010000230100002301000023010000E0
:1000900023010000230100002301000023010000D0
:1000A00023010000230100002301000023010000C0
:1000B00023010000230100002301000023010000B0
:1000C0000348854600F09AF800480047C90F000031
:1000D0001805002004207146084202D0EFF3098081
:1000E00001E0EFF308807146004A10478D050000DB
:1000F0000C480D4901600D4901600D4901600D4A30
:100100000D4911600D4A0E4911600E48804705489F
:10011000002101600C480047FEE7FEE7FEE7FEE72E
:10012000FEE7FEE700010050590000001600000045
:100130008800000060000050A55A00001400005024
:10014000C00000006D070000C100000030B50B4684
:10015000014600202022012409E00D46D5409D42A1
:1001600005D31D469540491B254695404019154627
:10017000521E002DF1DC30BD03460B439B0703D01C
:1001800009E008C9121F08C0042AFAD203E00B785C
:100190000370401C491C521EF9D27047F0B51FB4C1
:1001A0000646002082B005464024019100901BE0E5
:1001B000019922460F46304600F042F8049A059B0A
:1001C000801A994110D310461946224600F028F8AB
:1001D000361A8F410197224601200021009F00F02E
:1001E0001FF838184D4100902046641E0028DFDCBF
:1001F000019B00982946324607B0F0BD064C012508
:10020000064E05E0E36807CC2B430C3C98471034BE
:10021000B442F7D3FFF758FF08110000281100007F
:1002200010B5202A04DB0146203A9140002010BD81
:10023000914020239C1A0346E3401943904010BD8F
:1002400010B5202A04DB0846203AD040002110BD1A
:100250000B46D340D0402024A21A914008431946AF
:1002600010BD0000C10F8A00044951184A68C30636
:10027000DB0E0120984002434A60704700020050A4
:1002800002490A6802430A607047000000020050F9
:1002900010B500F05BFA0148006810BD00000020B6
:1002A00010B500F053FA0148006810BD00000020AE
:1002B00002480068C00700D00148704700020050A3
:1002C000001BB70004480068800702D50120C00366
:1002D00070470020704700000002005010B588B041
:1002E000202209496846FFF747FF0848406B44074A
:1002F000640F00F02BFAA000694609580448006812
:10030000FFF724FF08B010BD841000000002005069
:100310000000002010B588B0202209496846FFF788
:100320002BFF0848446B7020044000F00FFAA00037
:100330006946095804480068FFF708FF08B010BD77
:10034000A4100000000200500000002010B5104B67
:100350005A6AD00301D5002010BD51030D488C0FFF
:1003600003D0890F012909D00B4891049206890E08
:10037000920E5043491CFFF7E9FE10BD19690907A9
:1003800001D50648F1E719688904EED50448ECE781
:1003900000020050001BB70000093D00005125027B
:1003A0000024F40010B5074AD3691B091B010B4355
:1003B000D3611169090909010143116100F0C6F90E
:1003C00010BD00000002005070B5840A23061B0E09
:1003D0000CD003039B0F0F4D9B005B191D68860516
:1003E000E4B2F60EB440A54315431D60420E120759
:1003F0000ED04200074B920F92000C3BD2181368AC
:10040000C400240FC001C00E8440A3430B431360FB
:1004100070BD00001C02005010B504460749084B8F
:1004200005E00A46491E002A01DC002010BDDA68FA
:1004300020469043F5D1012010BD000080F520003A
:100440000002005010B5074907A000F05DFB084806
:10045000016AC90505D5FF210131016205A000F03F
:1004600053FB10BDE51000002573200D0A000000AD
:10047000404000505042382045494E5430206F6370
:100480006375727265642E200D0A000010B50D4967
:100490000DA000F039FB0E48016AC90504D5FF2103
:1004A000013101620BA00AE0094A403A116A116267
:1004B000016A016206494031086A08620CA000F036
:1004C00023FB10BDD41000002573200D0A0000008E
:1004D0004040005050422E38204750494F20494E4E
:1004E00054206F636375727265642E200A000000E9
:1004F000556E657870656374656420696E746572A5
:1005000072757074732E200A0000000070B5FF250C
:100510000A4C013500222946204600F022F801222B
:100520000821204600F010F805490420086005491C
:100530003A20086062692A43626170BD4040005001
:1005400000E100E08041005010B58369140E8C403A
:1005500023438361C3691202120A8A401343C361B1
:1005600010BDF0B5002301273C469C400C4208D04A
:1005700005685C000326A640B5431646A6403543F1
:1005800005605B1C102BEFD3F0BD0000044603A0F8
:1005900000F0BAFA204600F021FDFEE7496E20483F
:1005A000617264204661756C742048616E646C658C
:1005B000720A000070B559201622214C882102E0F1
:1005C0002060226021602368012BF9D10420FFF70D
:1005D00057FE0820FFF754FE1020FFF71DFF0820EC
:1005E000FFF71AFF00210420FFF7DCFE154D284617
:1005F000FFF738FE0121002289032846FFF7E4FEB9
:10060000114D2846FFF72EFE002203212846FFF752
:10061000DBFE00F09BF805200007816B090A090248
:100620008163816B112211438163C16B0909090147
:10063000C163C16B03221143C1630020206070BD00
:1006400000010050853EC4CE103D00AE0521020ED3
:10065000090751188B680122824013438B60886818
:10066000904388607047000006498A695205FCD4AF
:1006700008600A2804D188694005FCD40D20086070
:10068000704700000000054010B5144C2069410778
:100690001348490F08D001290DD002290ED0032993
:1006A0000FD004290FD00F48E1690907090F491C31
:1006B000FFF74CFD10BD0120C003F5E700F01AF86C
:1006C000F2E70948F0E72169090701D50748EBE798
:1006D00021688904E8D50648E6E7000000020050DA
:1006E000001BB70000093D00102700000051250243
:1006F0000024F40010B5104B5A6AD00301D5002035
:1007000010BD51030D488C0F03D0890F012909D06A
:100710000B4891049206890E920E5043491CFFF734
:1007200015FD10BD1969090701D50648F1E71968DB
:100730008904EED50448ECE700020050001BB70026
:1007400000093D00005125020024F40010B5FFF718
:100750009BFF044C044920604A108018FFF7F6FC08
:10076000606010BD0000002040420F000A4882680F
:1007700002210A4382600A4B084A5A60094A126AF7
:10078000FF231B049A43084B1A43084B1A638268E1
:100790008A438260704700000002005065A9000093
:1007A00000800040000100500030B000C0810040D7
:1007B00010B5094C7D22D2001021204600F06EF8C1
:1007C000E16801200143E160044AC102116021682F
:1007D0000143216010BD00000001114000E100E074
:1007E0001FB525491EC903946C460EC4234A2449EB
:1007F000904205D148690A6A4005400F120A16E086
:10080000204A904206D148690A6A4004400F120407
:10081000140F0EE01C4A9042886904D140050A6A10
:10082000400F120C03E040040A6A400F120D140737
:10083000240F641C042803D281006846405805E058
:10084000042808D0052814D0FFF72AFD2146FFF719
:100850007DFC04B010BD0869000702D521460B4895
:10086000F5E708682146800401D50948EFE7094803
:10087000EDE721460848EAE7C41000000000014007
:10088000000200500001014000001140005125020B
:100890000024F400001BB70000093D00F7B517461F
:1008A0000646FFF79DFF044600254008B84201D2E6
:1008B000022008E009498C4201D901250446394645
:1008C0002046FFF743FCB0607560019931606D1CF4
:1008D000684301462046FFF739FCFEBDFFFFFF00DD
:1008E00010B50C480169C907C90F12D00121016177
:1008F00009490888421C0A807D22D200904208D310
:10090000002008804A68501C4860044904A000F098
:10091000FBF810BD000111400C000020F610000093
:100920002573203A202534640D0A000010B51B48B9
:10093000FFF78CFEE1214902194800F079F8FFF732
:10094000A7FC014617A000F0DFF8FFF7B1FC014655
:100950001BA000F0D9F8FFF7B5FC01461EA000F07F
:10096000D3F8FFF79DFC014621A000F0CDF8FFF77A
:10097000EDFC014625A000F0C7F8FFF7AFFC0146EB
:1009800022A000F0C1F8FFF7C5FC01461FA000F04F
:10099000BBF825A000F0B8F810BD0000100000045E
:1009A000000005400D0A434C4B5F476574435055AA
:1009B00046726571203A202538640D0A0000000057
:1009C000434C4B5F47657448585446726571203AF2
:1009D000202538640D0A0000434C4B5F4765744C7A
:1009E000585446726571203A202538640D0A00007B
:1009F000434C4B5F47657450434C4B3046726571B6
:100A0000203A202538640D0A00000000434C4B5F5B
:100A100047657450434C4B3146726571203A20252E
:100A200038640D0A000000000D0A0D0A00000000E5
:100A300070B50E46044600F023F8054660680C21A8
:100A4000884360600020A0630320A060002E13D0C4
:100A5000700840193146FFF779FB0849401E88426B
:100A600009D9F00040193146FFF770FB0121000958
:100A7000C907401E0843606270BD0000FFFF000010
:100A800010B51A4B002201241949984206D1486931
:100A90004207C869520F0005040F08E0154B984241
:100AA00006D188694207C869520F0004040F641C0C
:100AB0001148002A06D0012A08D0022A09D0032AA8
:100AC0000AD00E482146FFF741FB10BD0120C003AC
:100AD000F8E7FFF70FFEF5E70A69120701D50848A6
:100AE000F0E709688904EDD50648EBE7000005400A
:100AF0000002005000001540001BB70000093D0037
:100B0000005125020024F4000FB410B503A9044BD2
:100B1000044A029800F018F810BC08BC04B018474A
:100B2000BD0F00000800002002E008C8121F08C125
:100B3000002AFAD170477047002001E001C1121F5E
:100B4000002AFBD170470000FFB591B00F46054663
:100B5000002606E025280AD0149A139990476D1CA8
:100B6000761C28780028F5D1304615B0F0BD002459
:100B700000940121F34A029400E004436D1C2B7899
:100B80000846203B98401042F7D128782A280ED0FA
:100B9000022128780246303A092A15D8009A0A23F9
:100BA0005A43303A80180C436D1C0090F1E701CF96
:100BB0000090002805DA01204003044300984042D9
:100BC0000090022004436D1C28782E2815D10420A3
:100BD000044368786D1C2A280AD101CF6D1C02904D
:100BE0000BE002990A225143303940186D1C0290E3
:100BF0002878014630390929F3D928786C2810D093
:100C000006DC4C281AD068280ED06A2817D104E0D8
:100C1000742813D07A2812D110E001204005044333
:100C20000CE00121090501E0032109050C43697865
:100C3000814203D10120000524186D1C6D1C287809
:100C400003906E281ED00CDC632831D004DC002811
:100C50008AD0582811D1B2E064287BD069280CD101
:100C600078E073282DD004DC6F2870D0702804D170
:100C7000A7E075286CD078286BD0149A1399904708
:100C8000761C62E06002400F022807D003280AD0D9
:100C9000042838680AD006603F1D56E03868F1170E
:100CA00006604160F8E738680680F5E70670F3E70C
:100CB0003878694608740020487404A8039001201D
:100CC00003E0386803900020C0433F1D61070FD543
:100CD000002101E00199491C029A0191914213DA25
:100CE0008142F7DB019A0399895C0029F2D10BE07C
:100CF000002101E00199491C01918142FADB019A2E
:100D00000399895C0029F5D101990098139A401A3A
:100D100000902146149B00F03BF901998019461878
:100D200007E0039803990078491C0391149A1399DA
:100D300090470198401E0190401CF2D12146149B1F
:100D4000139A009800F014F986196D1C09E741E028
:100D500033E034E00A200021049005916002410F45
:100D6000022905D001CFC2179446032905D007E018
:100D7000FF1DFF08FF0003CF06E000B2C217944634
:100D8000042902D140B2C1178C4600226146944525
:100D900006DA0A460021404291418C462D2102E0AC
:100DA000210504D52B216A461176012103E0E107D4
:100DB00001D02021F7E7019154E00A200BE0102038
:100DC00009E010200490002104200443082005912C
:100DD000029003E008200021059104906002410F79
:100DE000022905D001CF00229446032906D006E04F
:100DF000FF1DFF08FF0003CF8C4603E080B20429EB
:100E000000D1C0B20021019121072BD5039970298F
:100E100006D0049A1021059B4A401A4305D00EE0E3
:100E200040216A461176012108E06146014306D05F
:100E300030216A4611760399517602210191049A74
:100E40000821059B4A401A430CD16146014301D158
:100E5000610707D530216A46117601210191029977
:100E6000491E02910399582904D037A103910FA973
:100E70000F910DE039A1F9E76146059B049AFFF750
:100E80008DF9039B8C469B5C0F9A521E0F92137038
:100E900061460143F0D10F9807A9081A203003904A
:100EA000600704D5012000048443029801E001207A
:100EB00002900399884201DD401A00E000204118A9
:100EC0000290019809180098401A0090E00306D497
:100ED0002146149B139A009800F05AF886190020B6
:100EE000049008E006A9085C149A139990470498A6
:100EF000401C761C049001998842F3DBE0030CD57A
:100F00002146149B139A009800F042F8861904E0D9
:100F1000149A302013999047761C0299481E02902B
:100F20000029F5DC08E00F980F990078491C0F9113
:100F3000149A13999047761C0399481E0390002930
:100F4000F1DCFBE609280100303132333435363725
:100F50003839616263646566000000003031323305
:100F600034353637383941424344454600000000A5
:100F7000F8B5044600251E461746880404D405E04B
:100F800039462020B0476D1C641EF9D52846F8BDAF
:100F9000FFB50446002581B01E46C80301D53027A1
:100FA00000E02027880404D505E038460399B047BF
:100FB0006D1C641EF9D5284605B0F0BD00B503468A
:100FC000FFF752FB184600BDFFF7F4FAFFF7AEFC3F
:100FD000FFF7EEFBFFF79AFAFEE7000010B50446B4
:100FE000016810A0FFF790FD11A06168FFF78CFD6C
:100FF00012A0A168FFF788FD13A0E168FFF784FD48
:1010000014A02169FFF780FD15A06169FFF77CFD41
:1010100016A0A169FFF778FD17A0E169FFF774FD3D
:1010200010BD0000723020203D20307825780A0065
:10103000723120203D20307825780A00723220203D
:101040003D20307825780A00723320203D2030780A
:1010500025780A00723132203D20307825780A0048
:101060006C7220203D20307825780A0070632020A3
:101070003D20307825780A00707372203D2030784A
:1010800025780A00010000000200000004000000B2
:101090000800000010000000010000000100000036
:1010A0000100000001000000020000000400000038
:1010B0000800000010000000010000000100000016
:1010C00001000000001BB700008000001027000096
:1010D0000000000047504142435F49525148616E51
:1010E000646C65720045494E54305F495251486105
:1010F0006E646C657200544D52335F4952514861C1
:101100006E646C6572000000281100000000002071
:1011100014000000280B00003C1100001400002007
:1011200004050000380B0000001BB7000C00000095
:0C113000000000000000000000000000B3
:04000005000000F106
:00000001FF
